:08000000803102288731FD2F39
:100EA200F0002000111E522F700823009A00080043
:100EB200723021009900CF308C0038308D008F3095
:100EC2008E0020008C018D018E0123008C018D018A
:100ED20024309E0090309D0019309B00200091121A
:100EE200210091160B178B17F301F401F601F7019C
:100EF20020000E1C7F2FF801F80AA72F8D1D832FCB
:100F02000230A22F0E1D872F0330A22F8E1D8B2F92
:100F12000430A22F0C1F8F2F0530A22F8E1C932F6F
:100F22000630A22F0E1E972F0730A22F0D1E9B2FC9
:100F32000830A22F8C1D9F2F0930A22F8C1FA62FA5
:100F42000A30F1007108F800A72FF8010C1DAC2F30
:100F5200F501F50ABC2F8D1EB02F0230B72F0C1CE5
:100F6200B42F0330B72F8C1CBB2F0430F100710853
:100F7200F500BC2FF5017808F1000230F135FF3E93
:100F8200031DBF2F7135F2007208F800780875074B
:100F9200F1007108F600760873060319DD2F760852
:100FA2008731512787310D30F200FB30F100F10B10
:100FB200D82FF20BD82F00327608F1007108F30017
:100FC20078087507803EF1007108F700770874060B
:100FD2000319F82F77088731512787310D30F20036
:100FE200FB30F100F10BF32FF20BF32F00327708F5
:0E0FF200F1007108F400792F20008731592F8B
:020000040001F9
:04000E00A4C9FFDCA6
:00000001FF
